{
  "_format": "hh-sol-artifact-1",
  "contractName": "BuyMeACoffee",
  "sourceName": "contracts/BuyMeACoffee.sol",
  "abi": [
    {
      "inputs": [],
      "stateMutability": "nonpayable",
      "type": "constructor"
    },
    {
      "anonymous": false,
      "inputs": [
        {
          "indexed": true,
          "internalType": "address",
          "name": "from",
          "type": "address"
        },
        {
          "indexed": false,
          "internalType": "uint256",
          "name": "timestamp",
          "type": "uint256"
        },
        {
          "indexed": false,
          "internalType": "string",
          "name": "name",
          "type": "string"
        },
        {
          "indexed": false,
          "internalType": "string",
          "name": "message",
          "type": "string"
        }
      ],
      "name": "NewMemo",
      "type": "event"
    },
    {
      "inputs": [
        {
          "internalType": "string",
          "name": "_name",
          "type": "string"
        },
        {
          "internalType": "string",
          "name": "_message",
          "type": "string"
        }
      ],
      "name": "buyCoffee",
      "outputs": [],
      "stateMutability": "payable",
      "type": "function"
    },
    {
      "inputs": [],
      "name": "getMemos",
      "outputs": [
        {
          "components": [
            {
              "internalType": "address",
              "name": "from",
              "type": "address"
            },
            {
              "internalType": "uint256",
              "name": "timestamp",
              "type": "uint256"
            },
            {
              "internalType": "string",
              "name": "name",
              "type": "string"
            },
            {
              "internalType": "string",
              "name": "message",
              "type": "string"
            }
          ],
          "internalType": "struct BuyMeACoffee.Memo[]",
          "name": "",
          "type": "tuple[]"
        }
      ],
      "stateMutability": "view",
      "type": "function"
    },
    {
      "inputs": [],
      "name": "withdrawTips",
      "outputs": [],
      "stateMutability": "nonpayable",
      "type": "function"
    }
  ],
  "bytecode": "0x608060405234801561001057600080fd5b5033600160006101000a81548173ffffffffffffffffffffffffffffffffffffffff021916908373ffffffffffffffffffffffffffffffffffffffff160217905550610c76806100616000396000f3fe6080604052600436106100345760003560e01c8063204206e1146100395780633aaa74b214610055578063865c51721461006c575b600080fd5b610053600480360381019061004e91906105b0565b610097565b005b34801561006157600080fd5b5061006a610211565b005b34801561007857600080fd5b50610081610273565b60405161008e9190610836565b60405180910390f35b600034116100da576040517f08c379a00000000000000000000000000000000000000000000000000000000081526004016100d1906108b5565b60405180910390fd5b600060405180608001604052803373ffffffffffffffffffffffffffffffffffffffff16815260200142815260200184815260200183815250908060018154018082558091505060019003906000526020600020906004020160009091909190915060008201518160000160006101000a81548173ffffffffffffffffffffffffffffffffffffffff021916908373ffffffffffffffffffffffffffffffffffffffff1602179055506020820151816001015560408201518160020190816101a29190610ae1565b5060608201518160030190816101b89190610ae1565b5050503373ffffffffffffffffffffffffffffffffffffffff167fc56140e05f516509ae28110e0f72e17558a7561630dad2647c3ae87d986e365c42848460405161020593929190610bfb565b60405180910390a25050565b600160009054906101000a900473ffffffffffffffffffffffffffffffffffffffff1673ffffffffffffffffffffffffffffffffffffffff166108fc479081150290604051600060405180830381858888f1935050505061027157600080fd5b565b60606000805480602002602001604051908101604052809291908181526020016000905b8282101561044d57838290600052602060002090600402016040518060800160405290816000820160009054906101000a900473ffffffffffffffffffffffffffffffffffffffff1673ffffffffffffffffffffffffffffffffffffffff1673ffffffffffffffffffffffffffffffffffffffff1681526020016001820154815260200160028201805461032a90610904565b80601f016020809104026020016040519081016040528092919081815260200182805461035690610904565b80156103a35780601f10610378576101008083540402835291602001916103a3565b820191906000526020600020905b81548152906001019060200180831161038657829003601f168201915b505050505081526020016003820180546103bc90610904565b80601f01602080910402602001604051908101604052809291908181526020018280546103e890610904565b80156104355780601f1061040a57610100808354040283529160200191610435565b820191906000526020600020905b81548152906001019060200180831161041857829003601f168201915b50505050508152505081526020019060010190610297565b50505050905090565b6000604051905090565b600080fd5b600080fd5b600080fd5b600080fd5b6000601f19601f8301169050919050565b7f4e487b7100000000000000000000000000000000000000000000000000000000600052604160045260246000fd5b6104bd82610474565b810181811067ffffffffffffffff821117156104dc576104db610485565b5b80604052505050565b60006104ef610456565b90506104fb82826104b4565b919050565b600067ffffffffffffffff82111561051b5761051a610485565b5b61052482610474565b9050602081019050919050565b82818337600083830152505050565b600061055361054e84610500565b6104e5565b90508281526020810184848401111561056f5761056e61046f565b5b61057a848285610531565b509392505050565b600082601f8301126105975761059661046a565b5b81356105a7848260208601610540565b91505092915050565b600080604083850312156105c7576105c6610460565b5b600083013567ffffffffffffffff8111156105e5576105e4610465565b5b6105f185828601610582565b925050602083013567ffffffffffffffff81111561061257610611610465565b5b61061e85828601610582565b9150509250929050565b600081519050919050565b600082825260208201905092915050565b6000819050602082019050919050565b600073ffffffffffffffffffffffffffffffffffffffff82169050919050565b600061067f82610654565b9050919050565b61068f81610674565b82525050565b6000819050919050565b6106a881610695565b82525050565b600081519050919050565b600082825260208201905092915050565b60005b838110156106e85780820151818401526020810190506106cd565b838111156106f7576000848401525b50505050565b6000610708826106ae565b61071281856106b9565b93506107228185602086016106ca565b61072b81610474565b840191505092915050565b600060808301600083015161074e6000860182610686565b506020830151610761602086018261069f565b506040830151848203604086015261077982826106fd565b9150506060830151848203606086015261079382826106fd565b9150508091505092915050565b60006107ac8383610736565b905092915050565b6000602082019050919050565b60006107cc82610628565b6107d68185610633565b9350836020820285016107e885610644565b8060005b85811015610824578484038952815161080585826107a0565b9450610810836107b4565b925060208a019950506001810190506107ec565b50829750879550505050505092915050565b6000602082019050818103600083015261085081846107c1565b905092915050565b600082825260208201905092915050565b7f53656e64206d6f7265207468616e203020455448000000000000000000000000600082015250565b600061089f601483610858565b91506108aa82610869565b602082019050919050565b600060208201905081810360008301526108ce81610892565b9050919050565b7f4e487b7100000000000000000000000000000000000000000000000000000000600052602260045260246000fd5b6000600282049050600182168061091c57607f821691505b60208210810361092f5761092e6108d5565b5b50919050565b60008190508160005260206000209050919050565b60006020601f8301049050919050565b600082821b905092915050565b6000600883026109977fffffffffffffffffffffffffffffffffffffffffffffffffffffffffffffffff8261095a565b6109a1868361095a565b95508019841693508086168417925050509392505050565b6000819050919050565b60006109de6109d96109d484610695565b6109b9565b610695565b9050919050565b6000819050919050565b6109f8836109c3565b610a0c610a04826109e5565b848454610967565b825550505050565b600090565b610a21610a14565b610a2c8184846109ef565b505050565b5b81811015610a5057610a45600082610a19565b600181019050610a32565b5050565b601f821115610a9557610a6681610935565b610a6f8461094a565b81016020851015610a7e578190505b610a92610a8a8561094a565b830182610a31565b50505b505050565b600082821c905092915050565b6000610ab860001984600802610a9a565b1980831691505092915050565b6000610ad18383610aa7565b9150826002028217905092915050565b610aea826106ae565b67ffffffffffffffff811115610b0357610b02610485565b5b610b0d8254610904565b610b18828285610a54565b600060209050601f831160018114610b4b5760008415610b39578287015190505b610b438582610ac5565b865550610bab565b601f198416610b5986610935565b60005b82811015610b8157848901518255600182019150602085019450602081019050610b5c565b86831015610b9e5784890151610b9a601f891682610aa7565b8355505b6001600288020188555050505b505050505050565b610bbc81610695565b82525050565b6000610bcd826106ae565b610bd78185610858565b9350610be78185602086016106ca565b610bf081610474565b840191505092915050565b6000606082019050610c106000830186610bb3565b8181036020830152610c228185610bc2565b90508181036040830152610c368184610bc2565b905094935050505056fea264697066735822122020df8f23c1449f68c1ee74f5034119505c8198ec8d3ff66405f578fee74fae9b64736f6c634300080f0033",
  "linkReferences": {},
  "deployedLinkReferences": {}
}